{
  "_format": "hh-sol-artifact-1",
  "contractName": "LarvaNuts",
  "sourceName": "contracts/LarvaNuts.sol",
  "abi": [
    {
      "inputs": [
        {
          "internalType": "string",
          "name": "initBaseURI",
          "type": "string"
        }
      ],
      "stateMutability": "payable",
      "type": "constructor"
    },
    {
      "inputs": [],
      "name": "ApprovalCallerNotOwnerNorApproved",
      "type": "error"
    },
    {
      "inputs": [],
      "name": "ApprovalQueryForNonexistentToken",
      "type": "error"
    },
    {
      "inputs": [],
      "name": "ApprovalToCurrentOwner",
      "type": "error"
    },
    {
      "inputs": [],
      "name": "ApproveToCaller",
      "type": "error"
    },
    {
      "inputs": [],
      "name": "BalanceQueryForZeroAddress",
      "type": "error"
    },
    {
      "inputs": [],
      "name": "MintToZeroAddress",
      "type": "error"
    },
    {
      "inputs": [],
      "name": "MintZeroQuantity",
      "type": "error"
    },
    {
      "inputs": [],
      "name": "OwnerQueryForNonexistentToken",
      "type": "error"
    },
    {
      "inputs": [],
      "name": "TransferCallerNotOwnerNorApproved",
      "type": "error"
    },
    {
      "inputs": [],
      "name": "TransferFromIncorrectOwner",
      "type": "error"
    },
    {
      "inputs": [],
      "name": "TransferToNonERC721ReceiverImplementer",
      "type": "error"
    },
    {
      "inputs": [],
      "name": "TransferToZeroAddress",
      "type": "error"
    },
    {
      "anonymous": false,
      "inputs": [
        {
          "indexed": true,
          "internalType": "address",
          "name": "owner",
          "type": "address"
        },
        {
          "indexed": true,
          "internalType": "address",
          "name": "approved",
          "type": "address"
        },
        {
          "indexed": true,
          "internalType": "uint256",
          "name": "tokenId",
          "type": "uint256"
        }
      ],
      "name": "Approval",
      "type": "event"
    },
    {
      "anonymous": false,
      "inputs": [
        {
          "indexed": true,
          "internalType": "address",
          "name": "owner",
          "type": "address"
        },
        {
          "indexed": true,
          "internalType": "address",
          "name": "operator",
          "type": "address"
        },
        {
          "indexed": false,
          "internalType": "bool",
          "name": "approved",
          "type": "bool"
        }
      ],
      "name": "ApprovalForAll",
      "type": "event"
    },
    {
      "anonymous": false,
      "inputs": [
        {
          "indexed": true,
          "internalType": "address",
          "name": "previousOwner",
          "type": "address"
        },
        {
          "indexed": true,
          "internalType": "address",
          "name": "newOwner",
          "type": "address"
        }
      ],
      "name": "OwnershipTransferred",
      "type": "event"
    },
    {
      "anonymous": false,
      "inputs": [
        {
          "indexed": true,
          "internalType": "address",
          "name": "from",
          "type": "address"
        },
        {
          "indexed": true,
          "internalType": "address",
          "name": "to",
          "type": "address"
        },
        {
          "indexed": true,
          "internalType": "uint256",
          "name": "tokenId",
          "type": "uint256"
        }
      ],
      "name": "Transfer",
      "type": "event"
    },
    {
      "inputs": [
        {
          "internalType": "address",
          "name": "to",
          "type": "address"
        },
        {
          "internalType": "uint256",
          "name": "tokenId",
          "type": "uint256"
        }
      ],
      "name": "approve",
      "outputs": [],
      "stateMutability": "nonpayable",
      "type": "function"
    },
    {
      "inputs": [
        {
          "internalType": "address",
          "name": "owner",
          "type": "address"
        }
      ],
      "name": "balanceOf",
      "outputs": [
        {
          "internalType": "uint256",
          "name": "",
          "type": "uint256"
        }
      ],
      "stateMutability": "view",
      "type": "function"
    },
    {
      "inputs": [],
      "name": "baseURI",
      "outputs": [
        {
          "internalType": "string",
          "name": "",
          "type": "string"
        }
      ],
      "stateMutability": "view",
      "type": "function"
    },
    {
      "inputs": [
        {
          "internalType": "uint256",
          "name": "tokenId",
          "type": "uint256"
        }
      ],
      "name": "getApproved",
      "outputs": [
        {
          "internalType": "address",
          "name": "",
          "type": "address"
        }
      ],
      "stateMutability": "view",
      "type": "function"
    },
    {
      "inputs": [
        {
          "internalType": "address",
          "name": "owner",
          "type": "address"
        },
        {
          "internalType": "address",
          "name": "operator",
          "type": "address"
        }
      ],
      "name": "isApprovedForAll",
      "outputs": [
        {
          "internalType": "bool",
          "name": "",
          "type": "bool"
        }
      ],
      "stateMutability": "view",
      "type": "function"
    },
    {
      "inputs": [],
      "name": "isPublicMintEnabled",
      "outputs": [
        {
          "internalType": "bool",
          "name": "",
          "type": "bool"
        }
      ],
      "stateMutability": "view",
      "type": "function"
    },
    {
      "inputs": [],
      "name": "maxPerWallet",
      "outputs": [
        {
          "internalType": "uint256",
          "name": "",
          "type": "uint256"
        }
      ],
      "stateMutability": "view",
      "type": "function"
    },
    {
      "inputs": [],
      "name": "maxSupply",
      "outputs": [
        {
          "internalType": "uint256",
          "name": "",
          "type": "uint256"
        }
      ],
      "stateMutability": "view",
      "type": "function"
    },
    {
      "inputs": [
        {
          "internalType": "uint256",
          "name": "quantity_",
          "type": "uint256"
        }
      ],
      "name": "mint",
      "outputs": [],
      "stateMutability": "payable",
      "type": "function"
    },
    {
      "inputs": [],
      "name": "mintPrice",
      "outputs": [
        {
          "internalType": "uint256",
          "name": "",
          "type": "uint256"
        }
      ],
      "stateMutability": "view",
      "type": "function"
    },
    {
      "inputs": [],
      "name": "name",
      "outputs": [
        {
          "internalType": "string",
          "name": "",
          "type": "string"
        }
      ],
      "stateMutability": "view",
      "type": "function"
    },
    {
      "inputs": [],
      "name": "owner",
      "outputs": [
        {
          "internalType": "address",
          "name": "",
          "type": "address"
        }
      ],
      "stateMutability": "view",
      "type": "function"
    },
    {
      "inputs": [
        {
          "internalType": "uint256",
          "name": "tokenId",
          "type": "uint256"
        }
      ],
      "name": "ownerOf",
      "outputs": [
        {
          "internalType": "address",
          "name": "",
          "type": "address"
        }
      ],
      "stateMutability": "view",
      "type": "function"
    },
    {
      "inputs": [
        {
          "internalType": "uint256",
          "name": "quantity_",
          "type": "uint256"
        }
      ],
      "name": "premint",
      "outputs": [],
      "stateMutability": "payable",
      "type": "function"
    },
    {
      "inputs": [],
      "name": "renounceOwnership",
      "outputs": [],
      "stateMutability": "nonpayable",
      "type": "function"
    },
    {
      "inputs": [
        {
          "internalType": "address",
          "name": "from",
          "type": "address"
        },
        {
          "internalType": "address",
          "name": "to",
          "type": "address"
        },
        {
          "internalType": "uint256",
          "name": "tokenId",
          "type": "uint256"
        }
      ],
      "name": "safeTransferFrom",
      "outputs": [],
      "stateMutability": "nonpayable",
      "type": "function"
    },
    {
      "inputs": [
        {
          "internalType": "address",
          "name": "from",
          "type": "address"
        },
        {
          "internalType": "address",
          "name": "to",
          "type": "address"
        },
        {
          "internalType": "uint256",
          "name": "tokenId",
          "type": "uint256"
        },
        {
          "internalType": "bytes",
          "name": "_data",
          "type": "bytes"
        }
      ],
      "name": "safeTransferFrom",
      "outputs": [],
      "stateMutability": "nonpayable",
      "type": "function"
    },
    {
      "inputs": [
        {
          "internalType": "address",
          "name": "operator",
          "type": "address"
        },
        {
          "internalType": "bool",
          "name": "approved",
          "type": "bool"
        }
      ],
      "name": "setApprovalForAll",
      "outputs": [],
      "stateMutability": "nonpayable",
      "type": "function"
    },
    {
      "inputs": [
        {
          "internalType": "string",
          "name": "newBaseURI_",
          "type": "string"
        }
      ],
      "name": "setBaseURI",
      "outputs": [],
      "stateMutability": "nonpayable",
      "type": "function"
    },
    {
      "inputs": [
        {
          "internalType": "bool",
          "name": "isPublicMintEnabled_",
          "type": "bool"
        }
      ],
      "name": "setIsPublicMintEnabled",
      "outputs": [],
      "stateMutability": "nonpayable",
      "type": "function"
    },
    {
      "inputs": [
        {
          "internalType": "uint256",
          "name": "_limit",
          "type": "uint256"
        }
      ],
      "name": "setMaxPerWallet",
      "outputs": [],
      "stateMutability": "nonpayable",
      "type": "function"
    },
    {
      "inputs": [
        {
          "internalType": "uint256",
          "name": "_newMaxSupply",
          "type": "uint256"
        }
      ],
      "name": "setMaxSupply",
      "outputs": [],
      "stateMutability": "nonpayable",
      "type": "function"
    },
    {
      "inputs": [
        {
          "internalType": "uint256",
          "name": "_newMintPrice",
          "type": "uint256"
        }
      ],
      "name": "setMintPrice",
      "outputs": [],
      "stateMutability": "nonpayable",
      "type": "function"
    },
    {
      "inputs": [
        {
          "internalType": "bytes4",
          "name": "interfaceId",
          "type": "bytes4"
        }
      ],
      "name": "supportsInterface",
      "outputs": [
        {
          "internalType": "bool",
          "name": "",
          "type": "bool"
        }
      ],
      "stateMutability": "view",
      "type": "function"
    },
    {
      "inputs": [],
      "name": "symbol",
      "outputs": [
        {
          "internalType": "string",
          "name": "",
          "type": "string"
        }
      ],
      "stateMutability": "view",
      "type": "function"
    },
    {
      "inputs": [
        {
          "internalType": "uint256",
          "name": "tokenId_",
          "type": "uint256"
        }
      ],
      "name": "tokenURI",
      "outputs": [
        {
          "internalType": "string",
          "name": "",
          "type": "string"
        }
      ],
      "stateMutability": "view",
      "type": "function"
    },
    {
      "inputs": [],
      "name": "totalSupply",
      "outputs": [
        {
          "internalType": "uint256",
          "name": "",
          "type": "uint256"
        }
      ],
      "stateMutability": "view",
      "type": "function"
    },
    {
      "inputs": [
        {
          "internalType": "address",
          "name": "from",
          "type": "address"
        },
        {
          "internalType": "address",
          "name": "to",
          "type": "address"
        },
        {
          "internalType": "uint256",
          "name": "tokenId",
          "type": "uint256"
        }
      ],
      "name": "transferFrom",
      "outputs": [],
      "stateMutability": "nonpayable",
      "type": "function"
    },
    {
      "inputs": [
        {
          "internalType": "address",
          "name": "newOwner",
          "type": "address"
        }
      ],
      "name": "transferOwnership",
      "outputs": [],
      "stateMutability": "nonpayable",
      "type": "function"
    },
    {
      "inputs": [
        {
          "internalType": "address",
          "name": "",
          "type": "address"
        }
      ],
      "name": "walletMints",
      "outputs": [
        {
          "internalType": "uint256",
          "name": "",
          "type": "uint256"
        }
      ],
      "stateMutability": "view",
      "type": "function"
    },
    {
      "inputs": [
        {
          "internalType": "address",
          "name": "_owner",
          "type": "address"
        }
      ],
      "name": "walletOfOwner",
      "outputs": [
        {
          "internalType": "uint256[]",
          "name": "",
          "type": "uint256[]"
        }
      ],
      "stateMutability": "view",
      "type": "function"
    },
    {
      "inputs": [],
      "name": "withdraw",
      "outputs": [],
      "stateMutability": "payable",
      "type": "function"
    },
    {
      "inputs": [],
      "name": "withdrawWallet",
      "outputs": [
        {
          "internalType": "address payable",
          "name": "",
          "type": "address"
        }
      ],
      "stateMutability": "view",
      "type": "function"
    }
  ],
  "bytecode": "0x6080604052604051620042d7380380620042d78339818101604052810190620000299190620003fe565b6040518060400160405280600981526020017f4c617276614e75747300000000000000000000000000000000000000000000008152506040518060400160405280600281526020017f4c4e0000000000000000000000000000000000000000000000000000000000008152508160029080519060200190620000ad929190620002dc565b508060039080519060200190620000c6929190620002dc565b50620000d76200013060201b60201c565b6000819055505050620000ff620000f36200013960201b60201c565b6200014160201b60201c565b60006009819055506115b3600a819055506004600b8190555062000129816200020760201b60201c565b5062000636565b60006001905090565b600033905090565b6000600860009054906101000a900473ffffffffffffffffffffffffffffffffffffffff16905081600860006101000a81548173ffffffffffffffffffffffffffffffffffffffff021916908373ffffffffffffffffffffffffffffffffffffffff1602179055508173ffffffffffffffffffffffffffffffffffffffff168173ffffffffffffffffffffffffffffffffffffffff167f8be0079c531659141344cd1fd0a4f28419497f9722a3daafe3b4186f6b6457e060405160405180910390a35050565b620002176200013960201b60201c565b73ffffffffffffffffffffffffffffffffffffffff166200023d620002b260201b60201c565b73ffffffffffffffffffffffffffffffffffffffff161462000296576040517f08c379a00000000000000000000000000000000000000000000000000000000081526004016200028d906200046a565b60405180910390fd5b80600e9080519060200190620002ae929190620002dc565b5050565b6000600860009054906101000a900473ffffffffffffffffffffffffffffffffffffffff16905090565b828054620002ea9062000532565b90600052602060002090601f0160209004810192826200030e57600085556200035a565b82601f106200032957805160ff19168380011785556200035a565b828001600101855582156200035a579182015b82811115620003595782518255916020019190600101906200033c565b5b5090506200036991906200036d565b5090565b5b80821115620003885760008160009055506001016200036e565b5090565b6000620003a36200039d84620004b5565b6200048c565b905082815260208101848484011115620003bc57600080fd5b620003c9848285620004fc565b509392505050565b600082601f830112620003e357600080fd5b8151620003f58482602086016200038c565b91505092915050565b6000602082840312156200041157600080fd5b600082015167ffffffffffffffff8111156200042c57600080fd5b6200043a84828501620003d1565b91505092915050565b600062000452602083620004eb565b91506200045f826200060d565b602082019050919050565b60006020820190508181036000830152620004858162000443565b9050919050565b600062000498620004ab565b9050620004a6828262000568565b919050565b6000604051905090565b600067ffffffffffffffff821115620004d357620004d2620005cd565b5b620004de82620005fc565b9050602081019050919050565b600082825260208201905092915050565b60005b838110156200051c578082015181840152602081019050620004ff565b838111156200052c576000848401525b50505050565b600060028204905060018216806200054b57607f821691505b602082108114156200056257620005616200059e565b5b50919050565b6200057382620005fc565b810181811067ffffffffffffffff82111715620005955762000594620005cd565b5b80604052505050565b7f4e487b7100000000000000000000000000000000000000000000000000000000600052602260045260246000fd5b7f4e487b7100000000000000000000000000000000000000000000000000000000600052604160045260246000fd5b6000601f19601f8301169050919050565b7f4f776e61626c653a2063616c6c6572206973206e6f7420746865206f776e6572600082015250565b613c9180620006466000396000f3fe6080604052600436106101ee5760003560e01c80636f8b44b01161010d578063a22cb465116100a0578063e268e4d31161006f578063e268e4d3146106b0578063e985e9c5146106d9578063f0293fd314610716578063f2fde38b14610753578063f4a0a5281461077c576101ee565b8063a22cb465146105f6578063b88d4fde1461061f578063c87b56dd14610648578063d5abeb0114610685576101ee565b80638da5cb5b116100dc5780638da5cb5b1461056857806395d89b41146105935780639d5aef30146105be578063a0712d68146105da576101ee565b80636f8b44b0146104c057806370a08231146104e9578063715018a61461052657806385d178f41461053d576101ee565b80633ccfd60b1161018557806355f804b31161015457806355f804b3146104045780636352211e1461042d5780636817c76c1461046a5780636c0360eb14610495576101ee565b80633ccfd60b1461036957806342842e0e14610373578063438b63001461039c578063453c2310146103d9576101ee565b8063095ea7b3116101c1578063095ea7b3146102c357806318160ddd146102ec5780632373ac221461031757806323b872dd14610340576101ee565b80630116bc2d146101f357806301ffc9a71461021e57806306fdde031461025b578063081812fc14610286575b600080fd5b3480156101ff57600080fd5b506102086107a5565b6040516102159190613443565b60405180910390f35b34801561022a57600080fd5b5061024560048036038101906102409190612f69565b6107b8565b6040516102529190613443565b60405180910390f35b34801561026757600080fd5b5061027061089a565b60405161027d919061345e565b60405180910390f35b34801561029257600080fd5b506102ad60048036038101906102a89190612ffc565b61092c565b6040516102ba919061339f565b60405180910390f35b3480156102cf57600080fd5b506102ea60048036038101906102e59190612f04565b6109a8565b005b3480156102f857600080fd5b50610301610ab3565b60405161030e91906135a0565b60405180910390f35b34801561032357600080fd5b5061033e60048036038101906103399190612f40565b610aca565b005b34801561034c57600080fd5b5061036760048036038101906103629190612dfe565b610b63565b005b610371610b73565b005b34801561037f57600080fd5b5061039a60048036038101906103959190612dfe565b610ce7565b005b3480156103a857600080fd5b506103c360048036038101906103be9190612d99565b610d07565b6040516103d09190613421565b60405180910390f35b3480156103e557600080fd5b506103ee610f67565b6040516103fb91906135a0565b60405180910390f35b34801561041057600080fd5b5061042b60048036038101906104269190612fbb565b610f6d565b005b34801561043957600080fd5b50610454600480360381019061044f9190612ffc565b611003565b604051610461919061339f565b60405180910390f35b34801561047657600080fd5b5061047f611019565b60405161048c91906135a0565b60405180910390f35b3480156104a157600080fd5b506104aa61101f565b6040516104b7919061345e565b60405180910390f35b3480156104cc57600080fd5b506104e760048036038101906104e29190612ffc565b6110ad565b005b3480156104f557600080fd5b50610510600480360381019061050b9190612d99565b611133565b60405161051d91906135a0565b60405180910390f35b34801561053257600080fd5b5061053b611203565b005b34801561054957600080fd5b5061055261128b565b60405161055f91906133ba565b60405180910390f35b34801561057457600080fd5b5061057d6112b1565b60405161058a919061339f565b60405180910390f35b34801561059f57600080fd5b506105a86112db565b6040516105b5919061345e565b60405180910390f35b6105d860048036038101906105d39190612ffc565b61136d565b005b6105f460048036038101906105ef9190612ffc565b6113f6565b005b34801561060257600080fd5b5061061d60048036038101906106189190612ec8565b611594565b005b34801561062b57600080fd5b5061064660048036038101906106419190612e4d565b61170c565b005b34801561065457600080fd5b5061066f600480360381019061066a9190612ffc565b611788565b60405161067c919061345e565b60405180910390f35b34801561069157600080fd5b5061069a611804565b6040516106a791906135a0565b60405180910390f35b3480156106bc57600080fd5b506106d760048036038101906106d29190612ffc565b61180a565b005b3480156106e557600080fd5b5061070060048036038101906106fb9190612dc2565b611890565b60405161070d9190613443565b60405180910390f35b34801561072257600080fd5b5061073d60048036038101906107389190612d99565b611924565b60405161074a91906135a0565b60405180910390f35b34801561075f57600080fd5b5061077a60048036038101906107759190612d99565b61193c565b005b34801561078857600080fd5b506107a3600480360381019061079e9190612ffc565b611a34565b005b600d60009054906101000a900460ff1681565b60007f80ac58cd000000000000000000000000000000000000000000000000000000007bffffffffffffffffffffffffffffffffffffffffffffffffffffffff1916827bffffffffffffffffffffffffffffffffffffffffffffffffffffffff1916148061088357507f5b5e139f000000000000000000000000000000000000000000000000000000007bffffffffffffffffffffffffffffffffffffffffffffffffffffffff1916827bffffffffffffffffffffffffffffffffffffffffffffffffffffffff1916145b80610893575061089282611aba565b5b9050919050565b6060600280546108a9906138bb565b80601f01602080910402602001604051908101604052809291908181526020018280546108d5906138bb565b80156109225780601f106108f757610100808354040283529160200191610922565b820191906000526020600020905b81548152906001019060200180831161090557829003601f168201915b5050505050905090565b600061093782611b24565b61096d576040517fcf4700e400000000000000000000000000000000000000000000000000000000815260040160405180910390fd5b6006600083815260200190815260200160002060009054906101000a900473ffffffffffffffffffffffffffffffffffffffff169050919050565b60006109b382611003565b90508073ffffffffffffffffffffffffffffffffffffffff168373ffffffffffffffffffffffffffffffffffffffff161415610a1b576040517f943f7b8c00000000000000000000000000000000000000000000000000000000815260040160405180910390fd5b8073ffffffffffffffffffffffffffffffffffffffff16610a3a611b72565b73ffffffffffffffffffffffffffffffffffffffff1614158015610a6c5750610a6a81610a65611b72565b611890565b155b15610aa3576040517fcfb3b94200000000000000000000000000000000000000000000000000000000815260040160405180910390fd5b610aae838383611b7a565b505050565b6000610abd611c2c565b6001546000540303905090565b610ad2611b72565b73ffffffffffffffffffffffffffffffffffffffff16610af06112b1565b73ffffffffffffffffffffffffffffffffffffffff1614610b46576040517f08c379a0000000000000000000000000000000000000000000000000000000008152600401610b3d90613500565b60405180910390fd5b80600d60006101000a81548160ff02191690831515021790555050565b610b6e838383611c35565b505050565b610b7b611b72565b73ffffffffffffffffffffffffffffffffffffffff16610b996112b1565b73ffffffffffffffffffffffffffffffffffffffff1614610bef576040517f08c379a0000000000000000000000000000000000000000000000000000000008152600401610be690613500565b60405180910390fd5b600047905060008111610c37576040517f08c379a0000000000000000000000000000000000000000000000000000000008152600401610c2e906134e0565b60405180910390fd5b60003373ffffffffffffffffffffffffffffffffffffffff1682604051610c5d9061338a565b60006040518083038185875af1925050503d8060008114610c9a576040519150601f19603f3d011682016040523d82523d6000602084013e610c9f565b606091505b5050905080610ce3576040517f08c379a0000000000000000000000000000000000000000000000000000000008152600401610cda90613540565b60405180910390fd5b5050565b610d028383836040518060200160405280600081525061170c565b505050565b60606000610d1483611133565b905060008167ffffffffffffffff811115610d58577f4e487b7100000000000000000000000000000000000000000000000000000000600052604160045260246000fd5b604051908082528060200260200182016040528015610d865781602001602082028036833780820191505090505b5090506000610d93611c2c565b90506000805b8482108015610da9575060005483105b15610f5a576000600460008581526020019081526020016000206040518060600160405290816000820160009054906101000a900473ffffffffffffffffffffffffffffffffffffffff1673ffffffffffffffffffffffffffffffffffffffff1673ffffffffffffffffffffffffffffffffffffffff1681526020016000820160149054906101000a900467ffffffffffffffff1667ffffffffffffffff1667ffffffffffffffff16815260200160008201601c9054906101000a900460ff16151515158152505090508060400151610f4657600073ffffffffffffffffffffffffffffffffffffffff16816000015173ffffffffffffffffffffffffffffffffffffffff1614610ebc57806000015191505b8773ffffffffffffffffffffffffffffffffffffffff168273ffffffffffffffffffffffffffffffffffffffff161415610f455783858481518110610f2a577f4e487b7100000000000000000000000000000000000000000000000000000000600052603260045260246000fd5b6020026020010181815250508280610f419061391e565b9350505b5b8380610f519061391e565b94505050610d99565b8395505050505050919050565b600b5481565b610f75611b72565b73ffffffffffffffffffffffffffffffffffffffff16610f936112b1565b73ffffffffffffffffffffffffffffffffffffffff1614610fe9576040517f08c379a0000000000000000000000000000000000000000000000000000000008152600401610fe090613500565b60405180910390fd5b80600e9080519060200190610fff929190612b7a565b5050565b600061100e826120eb565b600001519050919050565b60095481565b600e805461102c906138bb565b80601f0160208091040260200160405190810160405280929190818152602001828054611058906138bb565b80156110a55780601f1061107a576101008083540402835291602001916110a5565b820191906000526020600020905b81548152906001019060200180831161108857829003601f168201915b505050505081565b6110b5611b72565b73ffffffffffffffffffffffffffffffffffffffff166110d36112b1565b73ffffffffffffffffffffffffffffffffffffffff1614611129576040517f08c379a000000000000000000000000000000000000000000000000000000000815260040161112090613500565b60405180910390fd5b80600a8190555050565b60008073ffffffffffffffffffffffffffffffffffffffff168273ffffffffffffffffffffffffffffffffffffffff16141561119b576040517f8f4eb60400000000000000000000000000000000000000000000000000000000815260040160405180910390fd5b600560008373ffffffffffffffffffffffffffffffffffffffff1673ffffffffffffffffffffffffffffffffffffffff16815260200190815260200160002060000160009054906101000a900467ffffffffffffffff1667ffffffffffffffff169050919050565b61120b611b72565b73ffffffffffffffffffffffffffffffffffffffff166112296112b1565b73ffffffffffffffffffffffffffffffffffffffff161461127f576040517f08c379a000000000000000000000000000000000000000000000000000000000815260040161127690613500565b60405180910390fd5b611289600061237a565b565b600f60009054906101000a900473ffffffffffffffffffffffffffffffffffffffff1681565b6000600860009054906101000a900473ffffffffffffffffffffffffffffffffffffffff16905090565b6060600380546112ea906138bb565b80601f0160208091040260200160405190810160405280929190818152602001828054611316906138bb565b80156113635780601f1061133857610100808354040283529160200191611363565b820191906000526020600020905b81548152906001019060200180831161134657829003601f168201915b5050505050905090565b611375611b72565b73ffffffffffffffffffffffffffffffffffffffff166113936112b1565b73ffffffffffffffffffffffffffffffffffffffff16146113e9576040517f08c379a00000000000000000000000000000000000000000000000000000000081526004016113e090613500565b60405180910390fd5b6113f33382612440565b50565b806000811180156114095750600b548111155b611448576040517f08c379a000000000000000000000000000000000000000000000000000000000815260040161143f906134c0565b60405180910390fd5b600a5481611454610ab3565b61145e91906136de565b111561149f576040517f08c379a000000000000000000000000000000000000000000000000000000000815260040161149690613520565b60405180910390fd5b81806009546114ae9190613765565b3410156114f0576040517f08c379a00000000000000000000000000000000000000000000000000000000081526004016114e790613580565b60405180910390fd5b600d60009054906101000a900460ff1661153f576040517f08c379a000000000000000000000000000000000000000000000000000000000815260040161153690613480565b60405180910390fd5b601160003373ffffffffffffffffffffffffffffffffffffffff1673ffffffffffffffffffffffffffffffffffffffff1681526020019081526020016000205460108190555061158f3384612440565b505050565b61159c611b72565b73ffffffffffffffffffffffffffffffffffffffff168273ffffffffffffffffffffffffffffffffffffffff161415611601576040517fb06307db00000000000000000000000000000000000000000000000000000000815260040160405180910390fd5b806007600061160e611b72565b73ffffffffffffffffffffffffffffffffffffffff1673ffffffffffffffffffffffffffffffffffffffff16815260200190815260200160002060008473ffffffffffffffffffffffffffffffffffffffff1673ffffffffffffffffffffffffffffffffffffffff16815260200190815260200160002060006101000a81548160ff0219169083151502179055508173ffffffffffffffffffffffffffffffffffffffff166116bb611b72565b73ffffffffffffffffffffffffffffffffffffffff167f17307eab39ab6107e8899845ad3d59bd9653f200f220920489ca2b5937696c31836040516117009190613443565b60405180910390a35050565b611717848484611c35565b6117368373ffffffffffffffffffffffffffffffffffffffff1661245e565b801561174b575061174984848484612481565b155b15611782576040517fd1a57ed600000000000000000000000000000000000000000000000000000000815260040160405180910390fd5b50505050565b606061179382611b24565b6117d2576040517f08c379a00000000000000000000000000000000000000000000000000000000081526004016117c990613560565b60405180910390fd5b600e6117dd836125e1565b6040516020016117ee929190613366565b6040516020818303038152906040529050919050565b600a5481565b611812611b72565b73ffffffffffffffffffffffffffffffffffffffff166118306112b1565b73ffffffffffffffffffffffffffffffffffffffff1614611886576040517f08c379a000000000000000000000000000000000000000000000000000000000815260040161187d90613500565b60405180910390fd5b80600b8190555050565b6000600760008473ffffffffffffffffffffffffffffffffffffffff1673ffffffffffffffffffffffffffffffffffffffff16815260200190815260200160002060008373ffffffffffffffffffffffffffffffffffffffff1673ffffffffffffffffffffffffffffffffffffffff16815260200190815260200160002060009054906101000a900460ff16905092915050565b60116020528060005260406000206000915090505481565b611944611b72565b73ffffffffffffffffffffffffffffffffffffffff166119626112b1565b73ffffffffffffffffffffffffffffffffffffffff16146119b8576040517f08c379a00000000000000000000000000000000000000000000000000000000081526004016119af90613500565b60405180910390fd5b600073ffffffffffffffffffffffffffffffffffffffff168173ffffffffffffffffffffffffffffffffffffffff161415611a28576040517f08c379a0000000000000000000000000000000000000000000000000000000008152600401611a1f906134a0565b60405180910390fd5b611a318161237a565b50565b611a3c611b72565b73ffffffffffffffffffffffffffffffffffffffff16611a5a6112b1565b73ffffffffffffffffffffffffffffffffffffffff1614611ab0576040517f08c379a0000000000000000000000000000000000000000000000000000000008152600401611aa790613500565b60405180910390fd5b8060098190555050565b60007f01ffc9a7000000000000000000000000000000000000000000000000000000007bffffffffffffffffffffffffffffffffffffffffffffffffffffffff1916827bffffffffffffffffffffffffffffffffffffffffffffffffffffffff1916149050919050565b600081611b2f611c2c565b11158015611b3e575060005482105b8015611b6b575060046000838152602001908152602001600020600001601c9054906101000a900460ff16155b9050919050565b600033905090565b826006600084815260200190815260200160002060006101000a81548173ffffffffffffffffffffffffffffffffffffffff021916908373ffffffffffffffffffffffffffffffffffffffff160217905550818373ffffffffffffffffffffffffffffffffffffffff168273ffffffffffffffffffffffffffffffffffffffff167f8c5be1e5ebec7d5bd14f71427d1e84f3dd0314c0f7b2291e5b200ac8c7c3b92560405160405180910390a4505050565b60006001905090565b6000611c40826120eb565b90508373ffffffffffffffffffffffffffffffffffffffff16816000015173ffffffffffffffffffffffffffffffffffffffff1614611cab576040517fa114810000000000000000000000000000000000000000000000000000000000815260040160405180910390fd5b60008473ffffffffffffffffffffffffffffffffffffffff16611ccc611b72565b73ffffffffffffffffffffffffffffffffffffffff161480611cfb5750611cfa85611cf5611b72565b611890565b5b80611d405750611d09611b72565b73ffffffffffffffffffffffffffffffffffffffff16611d288461092c565b73ffffffffffffffffffffffffffffffffffffffff16145b905080611d79576040517f59c896be00000000000000000000000000000000000000000000000000000000815260040160405180910390fd5b600073ffffffffffffffffffffffffffffffffffffffff168473ffffffffffffffffffffffffffffffffffffffff161415611de0576040517fea553b3400000000000000000000000000000000000000000000000000000000815260040160405180910390fd5b611ded858585600161278e565b611df960008487611b7a565b6001600560008773ffffffffffffffffffffffffffffffffffffffff1673ffffffffffffffffffffffffffffffffffffffff16815260200190815260200160002060000160008282829054906101000a900467ffffffffffffffff160392506101000a81548167ffffffffffffffff021916908367ffffffffffffffff1602179055506001600560008673ffffffffffffffffffffffffffffffffffffffff1673ffffffffffffffffffffffffffffffffffffffff16815260200190815260200160002060000160008282829054906101000a900467ffffffffffffffff160192506101000a81548167ffffffffffffffff021916908367ffffffffffffffff1602179055506000600460008581526020019081526020016000209050848160000160006101000a81548173ffffffffffffffffffffffffffffffffffffffff021916908373ffffffffffffffffffffffffffffffffffffffff160217905550428160000160146101000a81548167ffffffffffffffff021916908367ffffffffffffffff16021790555060006001850190506000600460008381526020019081526020016000209050600073ffffffffffffffffffffffffffffffffffffffff168160000160009054906101000a900473ffffffffffffffffffffffffffffffffffffffff1673ffffffffffffffffffffffffffffffffffffffff16141561207957600054821461207857878160000160006101000a81548173ffffffffffffffffffffffffffffffffffffffff021916908373ffffffffffffffffffffffffffffffffffffffff16021790555084602001518160000160146101000a81548167ffffffffffffffff021916908367ffffffffffffffff1602179055505b5b505050828473ffffffffffffffffffffffffffffffffffffffff168673ffffffffffffffffffffffffffffffffffffffff167fddf252ad1be2c89b69c2b068fc378daa952ba7f163c4a11628f55a4df523b3ef60405160405180910390a46120e48585856001612794565b5050505050565b6120f3612c00565b600082905080612101611c2c565b11158015612110575060005481105b15612343576000600460008381526020019081526020016000206040518060600160405290816000820160009054906101000a900473ffffffffffffffffffffffffffffffffffffffff1673ffffffffffffffffffffffffffffffffffffffff1673ffffffffffffffffffffffffffffffffffffffff1681526020016000820160149054906101000a900467ffffffffffffffff1667ffffffffffffffff1667ffffffffffffffff16815260200160008201601c9054906101000a900460ff1615151515815250509050806040015161234157600073ffffffffffffffffffffffffffffffffffffffff16816000015173ffffffffffffffffffffffffffffffffffffffff1614612225578092505050612375565b5b60011561234057818060019003925050600460008381526020019081526020016000206040518060600160405290816000820160009054906101000a900473ffffffffffffffffffffffffffffffffffffffff1673ffffffffffffffffffffffffffffffffffffffff1673ffffffffffffffffffffffffffffffffffffffff1681526020016000820160149054906101000a900467ffffffffffffffff1667ffffffffffffffff1667ffffffffffffffff16815260200160008201601c9054906101000a900460ff1615151515815250509050600073ffffffffffffffffffffffffffffffffffffffff16816000015173ffffffffffffffffffffffffffffffffffffffff161461233b578092505050612375565b612226565b5b505b6040517fdf2d9b4200000000000000000000000000000000000000000000000000000000815260040160405180910390fd5b919050565b6000600860009054906101000a900473ffffffffffffffffffffffffffffffffffffffff16905081600860006101000a81548173ffffffffffffffffffffffffffffffffffffffff021916908373ffffffffffffffffffffffffffffffffffffffff1602179055508173ffffffffffffffffffffffffffffffffffffffff168173ffffffffffffffffffffffffffffffffffffffff167f8be0079c531659141344cd1fd0a4f28419497f9722a3daafe3b4186f6b6457e060405160405180910390a35050565b61245a82826040518060200160405280600081525061279a565b5050565b6000808273ffffffffffffffffffffffffffffffffffffffff163b119050919050565b60008373ffffffffffffffffffffffffffffffffffffffff1663150b7a026124a7611b72565b8786866040518563ffffffff1660e01b81526004016124c994939291906133d5565b602060405180830381600087803b1580156124e357600080fd5b505af192505050801561251457506040513d601f19601f820116820180604052508101906125119190612f92565b60015b61258e573d8060008114612544576040519150601f19603f3d011682016040523d82523d6000602084013e612549565b606091505b50600081511415612586576040517fd1a57ed600000000000000000000000000000000000000000000000000000000815260040160405180910390fd5b805181602001fd5b63150b7a0260e01b7bffffffffffffffffffffffffffffffffffffffffffffffffffffffff1916817bffffffffffffffffffffffffffffffffffffffffffffffffffffffff191614915050949350505050565b60606000821415612629576040518060400160405280600181526020017f30000000000000000000000000000000000000000000000000000000000000008152509050612789565b600082905060005b6000821461265b5780806126449061391e565b915050600a826126549190613734565b9150612631565b60008167ffffffffffffffff81111561269d577f4e487b7100000000000000000000000000000000000000000000000000000000600052604160045260246000fd5b6040519080825280601f01601f1916602001820160405280156126cf5781602001600182028036833780820191505090505b5090505b60008514612782576001826126e891906137bf565b9150600a856126f79190613967565b603061270391906136de565b60f81b81838151811061273f577f4e487b7100000000000000000000000000000000000000000000000000000000600052603260045260246000fd5b60200101907effffffffffffffffffffffffffffffffffffffffffffffffffffffffffffff1916908160001a905350600a8561277b9190613734565b94506126d3565b8093505050505b919050565b50505050565b50505050565b6127a783838360016127ac565b505050565b600080549050600073ffffffffffffffffffffffffffffffffffffffff168573ffffffffffffffffffffffffffffffffffffffff161415612819576040517f2e07630000000000000000000000000000000000000000000000000000000000815260040160405180910390fd5b6000841415612854576040517fb562e8dd00000000000000000000000000000000000000000000000000000000815260040160405180910390fd5b612861600086838761278e565b83600560008773ffffffffffffffffffffffffffffffffffffffff1673ffffffffffffffffffffffffffffffffffffffff16815260200190815260200160002060000160008282829054906101000a900467ffffffffffffffff160192506101000a81548167ffffffffffffffff021916908367ffffffffffffffff16021790555083600560008773ffffffffffffffffffffffffffffffffffffffff1673ffffffffffffffffffffffffffffffffffffffff16815260200190815260200160002060000160088282829054906101000a900467ffffffffffffffff160192506101000a81548167ffffffffffffffff021916908367ffffffffffffffff160217905550846004600083815260200190815260200160002060000160006101000a81548173ffffffffffffffffffffffffffffffffffffffff021916908373ffffffffffffffffffffffffffffffffffffffff160217905550426004600083815260200190815260200160002060000160146101000a81548167ffffffffffffffff021916908367ffffffffffffffff160217905550600081905060008582019050838015612a2b5750612a2a8773ffffffffffffffffffffffffffffffffffffffff1661245e565b5b15612af1575b818773ffffffffffffffffffffffffffffffffffffffff16600073ffffffffffffffffffffffffffffffffffffffff167fddf252ad1be2c89b69c2b068fc378daa952ba7f163c4a11628f55a4df523b3ef60405160405180910390a4612aa06000888480600101955088612481565b612ad6576040517fd1a57ed600000000000000000000000000000000000000000000000000000000815260040160405180910390fd5b80821415612a31578260005414612aec57600080fd5b612b5d565b5b818060010192508773ffffffffffffffffffffffffffffffffffffffff16600073ffffffffffffffffffffffffffffffffffffffff167fddf252ad1be2c89b69c2b068fc378daa952ba7f163c4a11628f55a4df523b3ef60405160405180910390a480821415612af2575b816000819055505050612b736000868387612794565b5050505050565b828054612b86906138bb565b90600052602060002090601f016020900481019282612ba85760008555612bef565b82601f10612bc157805160ff1916838001178555612bef565b82800160010185558215612bef579182015b82811115612bee578251825591602001919060010190612bd3565b5b509050612bfc9190612c43565b5090565b6040518060600160405280600073ffffffffffffffffffffffffffffffffffffffff168152602001600067ffffffffffffffff1681526020016000151581525090565b5b80821115612c5c576000816000905550600101612c44565b5090565b6000612c73612c6e846135e0565b6135bb565b905082815260208101848484011115612c8b57600080fd5b612c96848285613879565b509392505050565b6000612cb1612cac84613611565b6135bb565b905082815260208101848484011115612cc957600080fd5b612cd4848285613879565b509392505050565b600081359050612ceb81613bff565b92915050565b600081359050612d0081613c16565b92915050565b600081359050612d1581613c2d565b92915050565b600081519050612d2a81613c2d565b92915050565b600082601f830112612d4157600080fd5b8135612d51848260208601612c60565b91505092915050565b600082601f830112612d6b57600080fd5b8135612d7b848260208601612c9e565b91505092915050565b600081359050612d9381613c44565b92915050565b600060208284031215612dab57600080fd5b6000612db984828501612cdc565b91505092915050565b60008060408385031215612dd557600080fd5b6000612de385828601612cdc565b9250506020612df485828601612cdc565b9150509250929050565b600080600060608486031215612e1357600080fd5b6000612e2186828701612cdc565b9350506020612e3286828701612cdc565b9250506040612e4386828701612d84565b9150509250925092565b60008060008060808587031215612e6357600080fd5b6000612e7187828801612cdc565b9450506020612e8287828801612cdc565b9350506040612e9387828801612d84565b925050606085013567ffffffffffffffff811115612eb057600080fd5b612ebc87828801612d30565b91505092959194509250565b60008060408385031215612edb57600080fd5b6000612ee985828601612cdc565b9250506020612efa85828601612cf1565b9150509250929050565b60008060408385031215612f1757600080fd5b6000612f2585828601612cdc565b9250506020612f3685828601612d84565b9150509250929050565b600060208284031215612f5257600080fd5b6000612f6084828501612cf1565b91505092915050565b600060208284031215612f7b57600080fd5b6000612f8984828501612d06565b91505092915050565b600060208284031215612fa457600080fd5b6000612fb284828501612d1b565b91505092915050565b600060208284031215612fcd57600080fd5b600082013567ffffffffffffffff811115612fe757600080fd5b612ff384828501612d5a565b91505092915050565b60006020828403121561300e57600080fd5b600061301c84828501612d84565b91505092915050565b60006130318383613348565b60208301905092915050565b61304681613805565b82525050565b613055816137f3565b82525050565b600061306682613667565b6130708185613695565b935061307b83613642565b8060005b838110156130ac5781516130938882613025565b975061309e83613688565b92505060018101905061307f565b5085935050505092915050565b6130c281613817565b82525050565b60006130d382613672565b6130dd81856136a6565b93506130ed818560208601613888565b6130f681613a54565b840191505092915050565b600061310c8261367d565b61311681856136c2565b9350613126818560208601613888565b61312f81613a54565b840191505092915050565b60006131458261367d565b61314f81856136d3565b935061315f818560208601613888565b80840191505092915050565b60008154613178816138bb565b61318281866136d3565b9450600182166000811461319d57600181146131ae576131e1565b60ff198316865281860193506131e1565b6131b785613652565b60005b838110156131d9578154818901526001820191506020810190506131ba565b838801955050505b50505092915050565b60006131f76013836136c2565b915061320282613a65565b602082019050919050565b600061321a6026836136c2565b915061322582613a8e565b604082019050919050565b600061323d6014836136c2565b915061324882613add565b602082019050919050565b60006132606019836136c2565b915061326b82613b06565b602082019050919050565b60006132836020836136c2565b915061328e82613b2f565b602082019050919050565b60006132a66000836136b7565b91506132b182613b58565b600082019050919050565b60006132c96014836136c2565b91506132d482613b5b565b602082019050919050565b60006132ec6010836136c2565b91506132f782613b84565b602082019050919050565b600061330f6016836136c2565b915061331a82613bad565b602082019050919050565b60006133326013836136c2565b915061333d82613bd6565b602082019050919050565b6133518161386f565b82525050565b6133608161386f565b82525050565b6000613372828561316b565b915061337e828461313a565b91508190509392505050565b600061339582613299565b9150819050919050565b60006020820190506133b4600083018461304c565b92915050565b60006020820190506133cf600083018461303d565b92915050565b60006080820190506133ea600083018761304c565b6133f7602083018661304c565b6134046040830185613357565b818103606083015261341681846130c8565b905095945050505050565b6000602082019050818103600083015261343b818461305b565b905092915050565b600060208201905061345860008301846130b9565b92915050565b600060208201905081810360008301526134788184613101565b905092915050565b60006020820190508181036000830152613499816131ea565b9050919050565b600060208201905081810360008301526134b98161320d565b9050919050565b600060208201905081810360008301526134d981613230565b9050919050565b600060208201905081810360008301526134f981613253565b9050919050565b6000602082019050818103600083015261351981613276565b9050919050565b60006020820190508181036000830152613539816132bc565b9050919050565b60006020820190508181036000830152613559816132df565b9050919050565b6000602082019050818103600083015261357981613302565b9050919050565b6000602082019050818103600083015261359981613325565b9050919050565b60006020820190506135b56000830184613357565b92915050565b60006135c56135d6565b90506135d182826138ed565b919050565b6000604051905090565b600067ffffffffffffffff8211156135fb576135fa613a25565b5b61360482613a54565b9050602081019050919050565b600067ffffffffffffffff82111561362c5761362b613a25565b5b61363582613a54565b9050602081019050919050565b6000819050602082019050919050565b60008190508160005260206000209050919050565b600081519050919050565b600081519050919050565b600081519050919050565b6000602082019050919050565b600082825260208201905092915050565b600082825260208201905092915050565b600081905092915050565b600082825260208201905092915050565b600081905092915050565b60006136e98261386f565b91506136f48361386f565b9250827fffffffffffffffffffffffffffffffffffffffffffffffffffffffffffffffff0382111561372957613728613998565b5b828201905092915050565b600061373f8261386f565b915061374a8361386f565b92508261375a576137596139c7565b5b828204905092915050565b60006137708261386f565b915061377b8361386f565b9250817fffffffffffffffffffffffffffffffffffffffffffffffffffffffffffffffff04831182151516156137b4576137b3613998565b5b828202905092915050565b60006137ca8261386f565b91506137d58361386f565b9250828210156137e8576137e7613998565b5b828203905092915050565b60006137fe8261384f565b9050919050565b60006138108261384f565b9050919050565b60008115159050919050565b60007fffffffff0000000000000000000000000000000000000000000000000000000082169050919050565b600073ffffffffffffffffffffffffffffffffffffffff82169050919050565b6000819050919050565b82818337600083830152505050565b60005b838110156138a657808201518184015260208101905061388b565b838111156138b5576000848401525b50505050565b600060028204905060018216806138d357607f821691505b602082108114156138e7576138e66139f6565b5b50919050565b6138f682613a54565b810181811067ffffffffffffffff8211171561391557613914613a25565b5b80604052505050565b60006139298261386f565b91507fffffffffffffffffffffffffffffffffffffffffffffffffffffffffffffffff82141561395c5761395b613998565b5b600182019050919050565b60006139728261386f565b915061397d8361386f565b92508261398d5761398c6139c7565b5b828206905092915050565b7f4e487b7100000000000000000000000000000000000000000000000000000000600052601160045260246000fd5b7f4e487b7100000000000000000000000000000000000000000000000000000000600052601260045260246000fd5b7f4e487b7100000000000000000000000000000000000000000000000000000000600052602260045260246000fd5b7f4e487b7100000000000000000000000000000000000000000000000000000000600052604160045260246000fd5b6000601f19601f8301169050919050565b7f6d696e74696e67206e6f7420656e61626c656400000000000000000000000000600082015250565b7f4f776e61626c653a206e6577206f776e657220697320746865207a65726f206160008201527f6464726573730000000000000000000000000000000000000000000000000000602082015250565b7f496e76616c6964206d696e7420616d6f756e7421000000000000000000000000600082015250565b7f4e6f206574686572206c65667420746f20776974686472617700000000000000600082015250565b7f4f776e61626c653a2063616c6c6572206973206e6f7420746865206f776e6572600082015250565b50565b7f4d617820737570706c7920657863656564656421000000000000000000000000600082015250565b7f5472616e73666572206661696c65642e00000000000000000000000000000000600082015250565b7f546f6b656e20646f6573206e6f74206578697374732100000000000000000000600082015250565b7f496e73756666696369656e742066756e64732100000000000000000000000000600082015250565b613c08816137f3565b8114613c1357600080fd5b50565b613c1f81613817565b8114613c2a57600080fd5b50565b613c3681613823565b8114613c4157600080fd5b50565b613c4d8161386f565b8114613c5857600080fd5b5056fea264697066735822122091190bbc73fde4e439b2a5b84b3388cb9208cce09a2b5f7c91011cad565895a764736f6c63430008040033",
  "linkReferences": {},
  "deployedLinkReferences": {}
}